:100000000A308A006A2A00000A108A100A11820740
:1000100028340C34013406340C2B6F36F430EA32B9
:100020000000D630EC37721D25335610201000002A
:100030000C00A02161366931F23072100A00A0393B
:100040006537F337F23273000C00ED30F829311DBB
:100050000A00ED30F829321D000120102000201088
:1000600020000C000C00ED34EE29311D0A00ED34A7
:10007000EE29321D000120102000201020000C006D
:10008000ED32E434E1183A050001ED32E43461194F
:100090003A0020102000201020000C002031E9320E
:1000A0006E3B65376932EF3900010C005029C529D4
:1000B000C927CE220A00552720214F2A4F270001A9
:1000C0000C000C00202A6539ED37ED3274396F05CC
:1000D0000001A0316F372026CD1935000C00D43235
:1000E0006D386539613A753961050001E131F43ADD
:1000F00061360001EF21000120000C00F03A653963
:10010000F4377310EF3500010C00D4326D38A818A5
:100110002910D6274C2AA81929050001D322CE2957
:100120004F29C52928192900A030E432EC306E3A55
:100130006500A0307439E1390001A024DA28D52403
:100140004529C420000120224529C521C8200001DD
:10015000A029D42750000030831686000330880081
:100160008030870083128A150A12822A0808F70055
:10017000080E0F39F80008005E0EF039F7000F3056
:100180000805770488000000081583160811C828A0
:100190008312081183160811831208008811831630
:1001A00088110F300805F038880083120516831671
:1001B000051200008312081583160811000083122F
:1001C000B6207808DE00081183160811000083129B
:1001D00008158316081100008312B6207808DD0088
:1001E0000811831608110F300805880083125E0E6F
:1001F000F700F030F70577085D04F8007808DD00B7
:10020000DD1F04298316D128DB08031D0929881165
:100210000A29881583168811000083120512831697
:1002200005120000831208118316081183125C0E58
:10023000DD000F30DD055D08DE00BC205C080F39F5
:10024000DD00DE00BC200800573084008313000866
:10025000031938290130F800F701F70B2D29F80BA5
:100260002C294A30F700F70B33293629800B2A292D
:100270000800580B3C293F294030D9004029D901BA
:1002800001305702D90759088038DA00DB015A08D3
:10029000DC00CE20080056080C3A03195629063A0D
:1002A00003195E29023A031964296929DB01013027
:1002B000DC00CE200230D70024216F290130D70086
:1002C0000230D80039216F29DB011030DC00CE204C
:1002D0006F290130DB005608DC00CE206F290800B2
:1002E000831603178C170C140000000083120C08EF
:1002F0007F390319B4290313C90003170D08031329
:10030000CA0003170F080313CB004908D6004B217E
:100310004A0803178D0003134B0803178F00831639
:100320008C170C140000000083120C0D0E0D7F3989
:100330000319B4290313C90003170D080313CA00D6
:1003400003170F080313CB004908D6004B214A08B6
:1003500003178D0003134B0803178F008D0A031931
:100360008F0A031370290317031308000F30831635
:100370000805880008118811051283128811831658
:100380008811831205128316051283120811831631
:1003900008110F308312D70024210130C900490809
:1003A000033C031CDB290330DE00BC200530D700F2
:1003B0002421C90ACF290230DE00BC20C901490826
:1003C000033C031CEC2949080420CA00DB014A084D
:1003D000DC00CE20C90ADF290800B6210130D70091
:1003E000D80039214E3003178D0000308F000313E1
:1003F00070210430C900FA30D7002421C90BFB2931
:10040000553003178D0000308F00031370215630D4
:1004100003178D0000308F00031370215B3003172A
:100420008D0000308F00031370210830C900FA30AE
:10043000D7002421C90B172A603003178D00003024
:100440008F00031370218A150A12A12A8E30F7003B
:100450004A08F8004908F900FA01F808031D3A2A89
:100460007908F800F9010830F702F808031D3A2A64
:10047000F701422A0310F81B412AF90DF80DF70382
:100480003A2AF813080056080319B32ADE005A085E
:100490000319B32ADE070318542A7F30DE02031C37
:1004A000B32A0319B32A582A8130DE070318B32A66
:1004B0005E08F700F801F901FA015708E200E217B7
:1004C0005808E1005908E0001830DE00DF01601C28
:1004D000812A5D08FA07031C732AF90A031D732A8F
:1004E000F80A0319DF175C08F907031C7A2AF80ACF
:1004F0000319DF175B08D800D8175808F807031846
:10050000DF17DF0DF80CF90CFA0CE20CE10CE00C33
:100510000310DE0B662A0130F7070318B32AF81B15
:10052000982AE20DFA0DF90DF80DF7030319B32A15
:10053000E21FA92AFA0A031DA92AF90A031DA92AFA
:10054000F80A031DA92AF80CF90CFA0CF70A03198A
:10055000B32A5708DF005B08DF06DF1FB12AF81750
:10056000B72AF813B72AF701F801F901FA010800D0
:10057000F701F801F901FA01DE01DF01E001E10113
:100580005D085C045B045A040319F62A2030E2007B
:100590000310D60DD70DD80DD90DDE0DDF0DE00DF2
:1005A000E10D5D086102031DDF2A5C086002031D86
:1005B000DF2A5B085F02031DDF2A5A085E02031C64
:1005C000F02A5A08DE025B08031C5B0FDF025C089E
:1005D000031C5C0FE0025D08031C5D0FE1020314C5
:1005E000F70DF80DF90DFA0DE20BC82A5E30840004
:1005F000831308000408CE004D08D0000319192BFE
:100600004C08D9004B08D8004A08D7004908D60042
:10061000DD01DC012030DB008230DA0043227A0881
:10062000CC007908CB007808CA007708C900D00B45
:10063000002B4C08D9004B08D8004A08D7004908BD
:10064000D6005608B63CD600FA015708DA00D7178C
:100650000310D70CD80CD90CFA0CF90CF80CF70CC9
:10066000D60B282BDA1F3F2BF709F809F909FA09ED
:10067000F70A0319F80A0319F90A0319FA0A7A089A
:10068000CC007908CB007808CA007708C900CC1FD5
:10069000562BCE03CE16C909CA09CB09CC09C90A03
:1006A0000319CA0A0319CB0A0319CC0A3B30D50037
:1006B0009A30D400CA30D300D2010A30D0004D089D
:1006C0000319CE0A4C08D9004B08D8004A08D700B5
:1006D0004908D6005508DD005408DC005308DB004B
:1006E0005208DA00B8220008C900840A0008CA00CB
:1006F000840A0008CB00840A0008CC00FD3084077F
:10070000F708031D962B4D0A50020319962B4E082D
:100710000319982B0F3950020319902B0318C82B7B
:10072000CE1BC82B4E1B982B2030C42B2030CE055F
:10073000CE1EA62BCE124D08031DCE037708CE0089
:100740002D30D6004B214E08F700CE014D08500247
:10075000031DB42B7708CE002E30D6004B214E0857
:10076000F7002030CE0500303030CE1EC42BCE1224
:100770004D08031DCE037708CE002D30D6004B2147
:100780004E08F700CE013030F7077708D6004B212E
:100790005508D9005408D8005308D7005208D6008D
:1007A000DD01DC01DB010A30DA00B8227A08D5006D
:1007B0007908D4007808D3007708D200D00B622BD8
:1007C0000800B621613003178D0000308F0003133D
:1007D0007021623003178D0000308F0003137021E9
:1007E000693003178D0000308F000313702108302B
:1007F000C900FA30D7002421C90BF92B6E3003173A
:100800008D0000308F00031370216F3003178D00AF
:1008100000308F0003137021763003178D000030F5
:100820008F00031370210430C900FA30D70024214F
:10083000C90B152C0E30D7000230D80039217A3080
:1008400003178D0000308F00031370210830D7008C
:100850000230D80039217C3003178D0000308F0022
:10086000031370210830D7000230D80039218316D5
:100870001F1383121F179F1783169F1783121F14AE
:1008800083161F109F101F119F112030F800831234
:100890001F08C73978049F000630F700F70B4E2C6D
:1008A00000001F151F19522C1E08FA0083161E087F
:1008B0008312C9001E08CA0026227A08AC007908F3
:1008C000AB007808AA007708A9001F102C08D900EF
:1008D0002B08D8002A08D7002908D6007130DD007F
:1008E0003D30DC007A30DB007D30DA0043227A08CC
:1008F000A8007908A7007808A6007708A50041306D
:1009000084002808CC002708CB002608CA00250848
:10091000C9000130CD00FA220C30C900FA30D700EE
:100920002421C90B8E2C7D3003178D0000308F00E1
:10093000031370218A150A12C32A831603178C1712
:100940000C14000000000318CC2C83120C087F3913
:100950000313CA0003170D080313CB0003170F0876
:100960000313CC004A08D6004B214B0803178D0017
:1009700003134C0803178F0083168C170C14000008
:10098000000083120313C90BC62CC92C831603174E
:10099000CC2CEA2C8316031783120C0D0E0D7F3915
:1009A0000313CA0003170D080313CB0003170F0826
:1009B0000313CC004A08D6004B214B0803178D00C7
:1009C00003134C0803178F008D0A03198F0A0313B2
:1009D000C90B9D2C080083161F1383121F179F1726
:1009E00083169F1783121F1483161F109F101F1149
:1009F0009F118312B6210C3003178D0000308F0039
:100A0000031370210030F8001F08C73978049F00D5
:100A10001430D70024211F151F190C2D1E08FA00B1
:100A200083161E088312C9001E08CA0026227A08EF
:100A3000B0007908AF007808AE007708AD00D901A2
:100A4000D8012030D7008130D6003008DD002F08D3
:100A5000DC002E08DB002D08DA0043227708C900ED
:100A60007808CA007908CB007A08CC004C08D0007E
:100A70004B08CF004A08CE004908CD00D401C03051
:100A8000D3007F30D2008830D1004D0803190A2EE0
:100A9000D900510803190A2ED902031C542D7F30A6
:100AA000D90703180A2E5A2D8130D902031C0A2EA9
:100AB00003190A2E5908F700F801F901FA01D801C3
:100AC0004E08D700D7174F08D6005008D500193068
:100AD000D9005408D50203187D2D0130D602031821
:100AE0007D2DD70203187D2DD80203187D2DD80A3D
:100AF000D70AD60A5408D507AF2D5308D6020318D3
:100B0000982D0130D7020318982DD8020318982D7C
:100B1000D80AD70A5308D6075408D507031CAF2DA7
:100B2000D60A031DAF2DD70A031DAF2DD80AAF2D4E
:100B300052088038D7020318AE2D0130D8020318AE
:100B4000AE2DD80A52088038D7075308D607031CA1
:100B50008C2DD70A031D8C2DD80A8C2D7A14D90B15
:100B6000B22DBD2D0310D50DD60DD70DD80D031008
:100B7000FA0DF90DF80DDA0D692D5A1CC52D03106B
:100B8000F80CF90CFA0CDA0CC82DF70303190A2E2D
:100B9000DA1BF12D0310D50DD60DD70DD80D540845
:100BA000D5020318DD2D0130D6020318DD2DD70242
:100BB0000318DD2DD802031C002E5308D60203189B
:100BC000E82D0130D7020318E82DD802031C002EAF
:100BD00052088038D7020318F12D0130D802031CC7
:100BE000002EFA0A031D002EF90A031D002EF80A32
:100BF000031D002EF70A03190A2EF80CF90CFA0C43
:100C00004E08D9005208D906D91F082EF8170E2E03
:100C1000F8130E2EF701F801F901FA017A08A40081
:100C20007908A3007808A2007708A1000330D70054
:100C30000230D8003921113003178D0000308F00A9
:100C4000031006300313C9009D2489308400240852
:100C5000CC002308CB002208CA002108C9000230BA
:100C6000CD00FA22153003178D0000308F000310DD
:100C700004300313C9009D240630C900FA30D700A0
:100C80002421C90B3E2E8A150A12CB2AD101040851
:100C9000D0005110831B5114CA1F562ED017501E5E
:100CA000D00AC909CA09C90A0319CA0A4A0EF03882
:100CB000CC00CC07E23ECD00323ECF004A080F39CF
:100CC000CD07CD07CF07E93ECE00CE07CE07490EB0
:100CD0000F39CE07CF07CE0DCF0DCF09CF0D490865
:100CE0000F39CF07CC0D0730CB000A30CF07CE032A
:100CF000031C762ECE07CD03031C7A2ECD07CC0322
:100D0000031C7E2ECC07CB03031C822E4B308400A9
:100D1000831307305005501384035005031D972E8D
:100D2000501A840A501A972E2030F700B42E8407E8
:100D30004F300402031950170008F700031DA82EB6
:100D4000501BA82E501AC22ED019A82E2030B32E18
:100D5000D01FB02E2D30F70084035013D013B42EC3
:100D6000D01550123030F707CA010408C9004A10E4
:100D7000831B4A147708D6004B214908840083134B
:0C0D80004A188317840A501F982E0800A0
:10100000183003178D0000308F008A1103137021F0
:101010008A15193003178D0000308F008A110313D1
:1010200070218A151F3003178D0000308F008A1140
:10103000031370218A150830C900FA30D7008A11CD
:1010400024218A15C90B1D28243003178D00003078
:101050008F008A11031370218A15253003178D0024
:1010600000308F008A11031370218A15293003176D
:101070008D0000308F008A11031370218A1504300F
:10108000C900FA30D7008A1124218A15C90B4128DA
:101090000830D7000130D8008A1139218A152D3047
:1010A00003178D0000308F008A11031370218A15F9
:1010B0000830D7000130D8008A1139218A158316EB
:1010C0001F1383121F179F1783169F1783121F1456
:1010D00083161F109F101F119F113030F8008312CC
:1010E0001F08C73978049F000630F700F70B7628F1
:1010F00000001F151F197A2883161E088312B500D9
:101100001E08B6001F10023084003608CA003508D9
:10111000C9008A1146268A152030D6008A114B2133
:101120008A150830C900FA30D7008A1124218A159F
:10113000C90B93280830D7000230D8008A11392112
:101140008A152F3003178D0000308F008A1103138A
:1011500070218A150830D7000230D8008A11392151
:101160008A1583161F1383121F179F1783169F1745
:1011700083121F1483161F109F101F119F11083018
:10118000F80083121F08C73978049F000630F70063
:10119000F70BC82800001F151F19CC2883161E083E
:1011A0008312BB001E08BC001F10023084003C08E4
:1011B000CA003B08C9008A1146268A152030D6008D
:1011C0008A114B218A150830C900FA30D7008A11DC
:1011D00024218A15C90BE528313003178D00003012
:1011E0008F008A11031370218A15323003178D0086
:1011F00000308F008A11031370218A1533300317D2
:101200008D0000308F008A11031370218A1537304A
:1012100003178D0000308F008A11031370218A1587
:101220000430C900FA30D7008A1124218A15C90B6D
:1012300012290830D7000130D8008A1139218A15C7
:101240003B3003178D0000308F008A11031370218B
:101250008A150830D7000130D8008A1139218A1543
:1012600083161F1383121F179F1783169F1783124E
:101270001F1483161F109F101F119F110830F800B4
:1012800083121F08C73978049F000630F700F70B58
:10129000472900001F151F194B2983161E088312AA
:1012A000B7001E08B8001F10023084003808CA00BA
:1012B0003708C9008A1146268A152030D6008A11BF
:1012C0004B218A150830C900FA30D7008A11242131
:1012D0008A15C90B64290830D7000230D8008A115A
:1012E00039218A153D3003178D0000308F008A1197
:1012F000031370218A150830D7000230D8008A11F4
:1013000039218A1583161F1383121F179F178316FF
:101310009F1783121F1483161F109F101F119F11F8
:101320000830F80083121F08C73978049F00063080
:10133000F700F70B992900001F151F199D29831627
:101340001E088312BD001E08BE001F10023084005C
:101350003E08CA003D08C9008A1146268A15203079
:10136000D6008A114B218A150830C900FA30D700FF
:101370008A1124218A15C90BB6293F3003178D0025
:1013800000308F008A11031370218A154030031733
:101390008D0000308F008A11031370218A154530AB
:1013A00003178D0000308F008A11031370218A15F6
:1013B0000430C900FA30D7008A1124218A15C90BDC
:1013C000DA290830D7000130D8008A1139218A156E
:1013D000493003178D0000308F008A1103137021EC
:1013E0008A150830D7000130D8008A1139218A15B2
:1013F00037083502C9003608CA003808031C380F00
:10140000CA0203104A0CBA00490CB9000230840029
:101410003A08CA003908C9008A1146268A152030C0
:10142000D6008A114B218A150830C900FA30D7003E
:101430008A1124218A15C90B162A0830D7000230D8
:10144000D8008A1139218A154B3003178D000030DE
:101450008F008A11031370218A150830D7000230DB
:10146000D8008A1139218A150630F700F70B362A81
:1014700000003D083B02C9003C08CA003E08031CAE
:101480003E0FCA0203104A0CC000490CBF000230D4
:1014900084004008CA003F08C9008A1146268A1500
:1014A0002030D6008A114B218A150830C900FA3045
:1014B000D7008A1124218A15C90B572A4D300317EA
:1014C0008D0000308F008A11031370218A158A1550
:1014D0000A12CF2A840183131F3083051930831623
:1014E0009900A6309800903083129800C601C5017B
:1014F00083161F149F141F159F1107309C008A111B
:101500008312AB288A157E3003178D0000308F00C0
:101510008A11031370218A150830C900FA30D700E8
:101520008A1124218A15C90B8E2A843003178D0055
:1015300000308F008A11031370218A1586018A11E9
:10154000ED298A151430D7008A1124218A1501301B
:10155000D700D8008A1139218A15853003178D00EC
:1015600000308F008A11031370218A158E30031703
:101570008D0000308F008A11031370218A15081C1A
:10158000C42A8A11E12B8A15831609158312091DB5
:10159000CC2A8A11EB2C8A15881C152C00288C1E4D
:1015A000CF2A1A08A000FF30C7000130C800480247
:1015B000F800780DF700F70DF70DF830F70577080C
:1015C00005389200470883169200831207110C30E9
:1015D00097000330C6002030C5004608F9004508D2
:1015E000F800F90CF80CF90CF80CF90C78089500D7
:1015F000F90C790C3039F7001708CF3977049700C8
:101600004608F9004508F800F90CF80CF90CF80C3C
:10161000F90C78089B00F90C790C3039F7001D089B
:10162000CF3977049D008C1E132B1A08A0002008C8
:101630005A3C031D4D2BFF30C7001430D7008A11D0
:1016400024218A150130C8004802F800780DF700FF
:10165000F70DF70DF830F7057708063892004708C0
:1016600083169200831207110C3097000330C600D6
:10167000FF30C5004608F9004508F800F90CF80CE1
:10168000F90CF80CF90C78089500F90C790C303944
:10169000F7001708CF39770497002008583C031D3E
:1016A0007E2BFF30C7000130C8004802F800780DDB
:1016B000F700F70DF70DF830F705770805389200B9
:1016C000470883169200831207110C3097000330ED
:1016D000C600FF30C5004608F9004508F800F90CBF
:1016E000F80CF90CF80CF90C78089500F90C790C49
:1016F0003039F7001708CF39770497002008573C96
:10170000031D9C2B061486100615861106168612DC
:10171000061786138A11B6218A150130D700D80022
:101720008A1139218A15943003178D0000308F00FB
:101730008A11031370218A152008533C031DBA2B0C
:1017400006108614061186150612861606138617CD
:101750008A11B6218A150130D700D8008A113921A3
:101760008A15993003178D0000308F008A110313FA
:1017700070218A152008413C031DD82B06108614C1
:101780000615861106128616061786138A11B621CB
:101790008A150130D700D8008A1139218A159D3069
:1017A00003178D0000308F008A11031370218A15F2
:1017B0002008443C031DF62B0614861006118615DE
:1017C00006168612061386178A11B6218A1501306D
:1017D000D700D8008A1139218A15A33003178D004C
:1017E00000308F008A11031370218A152008463CAF
:1017F000031D142C0610861006118611061286127F
:10180000061386138A11B6218A150130D700D80035
:101810008A1139218A15A83003178D0000308F00F6
:0E1820008A11031370218A15D32ABF2A630090
:02400E00393F38
:00000001FF
;PIC16F877A
;CRC=034F  CREATED="15-may-18 15:01"
